:1000000060200020510100004D0100004D01000062
:1000100000000000000000000000000000000000E0
:100020000000000000000000000000004D01000082
:1000300000000000000000004D0100004D01000024
:100040004D0100004D0100004D0100004D01000078
:100050004D0100004D0100004D0100004D01000068
:100060004D0100004D0100004D0100004D01000058
:100070004D0100004D0100004D0100004D01000048
:10008000290A00004D0100004D0100004D01000053
:100090004D01000000000000000000004D010000C4
:1000A0004D0100004D0100004D0100004D01000018
:1000B000000000000448054B10B5834203D0044BF8
:1000C000002B00D0984710BD4C0C00004C0C0000D9
:1000D0000000000006480749091A8910CB0F59187B
:1000E00010B5491003D0044B002B00D0984710BD29
:1000F0004C0C00004C0C00000000000010B5074C38
:100100002378002B09D1FFF7D5FF054B002B02D038
:10011000044800E000BF0123237010BD0000002050
:10012000000000004C0C0000054B10B5002B03D064
:100130000449054800E000BFFFF7CCFF10BDC046F2
:1001400000000000040000204C0C0000FEE700004E
:100150002148224970B50023884235D10021204B27
:10016000204A934235D3FF221F4B032193431F4A5A
:100170000C2593600222082430261D4B1D485A622C
:10018000C3788B431343C370C378AB432343C3701B
:10019000194B987BB0430600202030439873987B1E
:1001A000A84304439C73987B884302439A7380233B
:1001B000124A51680B435360114B9847114B9847B3
:1001C000FEE7C458043314600F4CCA18A242F8D397
:1001D000C4E702C3C5E7C0464C0C00000000002085
:1001E00000000020600000200000000000ED00E0A2
:1001F000FC700041005000410048004100400041B7
:10020000850B000031040000000000201FB5140021
:100210001438828B01AB1A80054A03915A80190069
:10022000044B02949847002800D1200004B010BD70
:100230000080FFFF890800001FB514001438828B6E
:1002400001AB1A80054A03915A801900044B0294AD
:100250009847002800D1200004B010BD0180FFFFA6
:100260008908000070B50400431E98410D00C0B21B
:100270000749084B5E22984729002000064B984703
:10028000002803D1054BA361054B636170BDC046D7
:10029000CC0B000051030000590800003902000097
:1002A0000D02000010B5024B1860024B984710BDBC
:1002B0001C00002049030000044B10B51C68044BCF
:1002C0009847044B01002000984710BD1C000020F7
:1002D0002D0300004B030000064B1A7AD2B21A72AB
:1002E0005A7AD2B25A729A7AD2B29A72DA7AD2B26E
:1002F000DA72704700040040074B10B55A685A6024
:10030000064B9847064B98470820064CA047064BDB
:100310009847F720A04710BD00400041D9020000D7
:1003200059030000F5030000890300000300F020DA
:100330004000584310B5034B023003219847642313
:10034000584310BD6D0A000070470139FDD8704751
:10035000002800D100BE7047FE210A4BC9039A69EC
:10036000114002220A431F219A611A7F0A401A771C
:100370000422D9681142FCD0802299690A439A610B
:100380007047C046000800400222164B9A840E3285
:10039000D9681142FCD0144ADA62144A1268920EEB
:1003A0003F2A0FD08021920289000A439A620222DA
:1003B0009A849A8CD021520707D41022D96811420E
:1003C000FCD006E0FC22D201F0E7DA680A40D02A2D
:1003D000FBD18022998C0A439A84054A5378DB0921
:1003E000FCD1704700080040000001042460800038
:1003F000000C0040C30708D580220A4B52009A60C7
:10040000094A5A605A78D209FCD1030708D5042258
:10041000044BFF329A60054A5A605A78D209FCD1DF
:100420007047C046000C00400007010003040100B3
:10043000F8B5104B9847C0240F48104B9847E40577
:100440008023802201270226FA20DB001201A76107
:100450004000A6610A4DA361A261A84780238022C3
:10046000FA20DB001201676140006661636162612E
:10047000A847E5E7610A000010E000E0A5020000DF
:10048000B9020000C023DB059860802382B2DB053F
:100490001343044A000C9362C0231B061843906266
:1004A0007047C04600440041114B70B51800042548
:1004B000483002780F24AA43027001220178914348
:1004C000114301701900032034310E784933A643DB
:1004D000304308701878A843187018789043024386
:1004E0001A700B781C40302323430B7070BDC0463C
:1004F000004400411023054A116A0B431362044B68
:10050000044A5A80044A5A807047C046000400409A
:10051000000C0040164000001343000010B5044BCF
:1005200098470449044B05489847054B984710BD28
:10053000F5040000001000426502000040000020A9
:10054000A9040000F8B5C0270125FF05134C144B82
:100550009847144E7D612800B047220002204032A7
:100560001378AB4313707861B0472200802041328A
:100570001378C000AB4313707861B047220080202D
:100580004A3213780001AB4313704B347861B047A3
:100590002378AB432370044B9847F8BD00440041D7
:1005A000F9020000850400001D050000C36919421E
:1005B000FCD17047022210B5036803219343036006
:1005C000014B984710BDC046AD050000074B10B564
:1005D000C3189B0ADBB20020022B06D0E622044996
:1005E0009200044B98470120404210BD00F8FFBD27
:1005F000110C000051030000C02310B542689B029B
:10060000134343600421014B984710BDAD05000022
:10061000F7B50368050000915B4F042114000193B6
:10062000B84701216B8B009E9BB20E400222002E28
:1006300000D166E013420FD080220B405E425E4143
:100640002976608852010243628062884F48053EE5
:10065000024062803000FEBD04261E4015D0636853
:10066000002B04DD802362885B0113436380638871
:100670001BB2002B02DA2800454B98476388434A97
:100680001340638002267642E4E780236288DB0021
:100690001A40009218D0062223880421DB09134057
:1006A00028000093B84780226B6AD2011A40F123D8
:1006B0001343009A042113436B622800B8476388F0
:1006C000344A13406380C5E76668002E09D1638809
:1006D0001BB2002B02DA28002D4B984763882B4A67
:1006E000EFE7A36804211A782B0028331A7028003A
:1006F000B847A3680133A3606368013B63600026C9
:10070000A8E700981042A5D06268002A38D05B079D
:1007100036D4019B013ADE0E0E406260002A0AD1F7
:10072000002E0CD180236A68DB0213436B60042126
:100730002800B84703E0012A01D1002EF2D16368F6
:10074000002B10D16388114E1BB2002B08DA6B68A6
:10075000280033406B600421B84728000C4B9847B1
:10076000638833406380A6680421731CA36028005B
:10077000B8472B0028331B78337002232B76BEE753
:1007800002232B767EE7C046AD050000FFFEFFFF8B
:10079000F9050000FFFBFFFFF0B585B00290294B83
:1007A00008000C009847C3B2019318230199E2692D
:1007B0004B432549CB185D68D30718D41C23022668
:1007C0002B4003212000214F0393B8472368334275
:1007D00005D020001E4B984731002000B847012368
:1007E000039A0321134323602000184B98471826CF
:1007F000164F20000121B847256020000321B8478B
:10080000019B20005E43104B04219E19B368AD018B
:100810006360B847F368A90FE360656A0D4A029BFD
:100820002A4001258D42AD416D42AD0315439981AA
:10083000200065620421B8470020738A029AD381A0
:1008400005B0F0BDCD050000E80B0000AD050000CF
:10085000B5050000FFBFFFFF70B50400431E9841BF
:100860000D00054AC0B20549054B9847256129008E
:100870002000044B984770BD07050000110C0000D4
:100880005103000099070000F7B504005B4F5C4B73
:10089000009106695B4A3900012098472069B82217
:1008A000431E9841D200564BC0B239009847009879
:1008B000554A431E98413900514BC0B29847802396
:1008C00062885B009C461A4200D086E0009A00993C
:1008D00052881A434A80220029C929C26346726895
:1008E0000421134373603000484B98472569484AF8
:1008F0002B68390001930120414B98476268012A17
:1009000042D1019BDB0E13423ED080236A68DB029A
:1009100013436B6004213D4B2800984780232288B5
:10092000DB0057001A4233D06288D20702D56288B2
:1009300013436380354B04212800984780226B6A5B
:10094000D2011A4080231B021343324A17401F432F
:1009500028002E4B6F6204219847802303222069D0
:100960005B02017E013BC9B2002B01D01142F8D0DD
:1009700028002200284DA847032700281AD06388A2
:10098000264A13406380FEBD6B68254A1340C0E7CA
:10099000638804219BB2019328001C4B9847FF22D7
:1009A00001991740FE3A0A40174380226B6AD20130
:1009B0001340CCE78022638852001342E3D08023A7
:1009C00022695B02117E013BC9B2002B07D039427C
:1009D000F8D022003000A847ECE706200CE0009B8E
:1009E0005B881BB2002B02DA30000E4B98470520C3
:1009F00063880A4A134063804042C4E7110C000038
:100A000051030000BF050000C1050000AD05000056
:100A100094050000FE07000011060000FFFEFFFF26
:100A2000FFFFFBFFF90500000C4B70B51C680123AC
:100A30002569EA6A1A4205D0EB622368002B01D0CF
:100A400020009847AB6A1B0706D50823EB62636852
:100A5000002B01D02000984770BDC0462000002028
:100A600010B5014B984710BD450500000022430812
:100A70008B4274D303098B425FD3030A8B4244D366
:100A8000030B8B4228D3030C8B420DD3FF220902A8
:100A900012BA030C8B4202D31212090265D0030B67
:100AA0008B4219D300E0090AC30B8B4201D3CB035D
:100AB000C01A5241830B8B4201D38B03C01A52419F
:100AC000430B8B4201D34B03C01A5241030B8B42A1
:100AD00001D30B03C01A5241C30A8B4201D3CB028C
:100AE000C01A5241830A8B4201D38B02C01A524171
:100AF000430A8B4201D34B02C01A5241030A8B4274
:100B000001D30B02C01A5241CDD2C3098B4201D38B
:100B1000CB01C01A524183098B4201D38B01C01A09
:100B2000524143098B4201D34B01C01A5241030980
:100B30008B4201D30B01C01A5241C3088B4201D32F
:100B4000CB00C01A524183088B4201D38B00C01ADC
:100B5000524143088B4201D34B00C01A5241411A03
:100B600000D20146524110467047FFE701B5002010
:100B700000F006F802BDC0460029F7D076E77047BE
:100B80007047C04670B500260C4D0D4C641BA41078
:100B9000A64209D1002600F049F80A4D0A4C641B10
:100BA000A410A64205D170BDB300EB58984701369A
:100BB000EEE7B300EB5898470136F2E7380C000037
:100BC000380C0000380C00003C0C00002E2E2F6862
:100BD000616C2F7372632F68616C5F6932635F6D44
:100BE0005F73796E632E6300020000001400200022
:100BF00000010000E5E600000000D700006CDC0208
:100C000000000000000000000000000000000000E4
:100C1000002E2E2F68706C2F736572636F6D2F68B6
:100C2000706C5F736572636F6D2E6300F8B5C046BC
:100C3000F8BC08BC9E46704729010000F8B5C046C4
:0C0C4000F8BC08BC9E467047FD00000098
:00000001FF
